:020000040000fa
:080000000002040000000000f2
:020000040000fa
:100400006f87200080f727000001880000000000af
:10041000050007000c000700ec09020000000000c6
:100420000040da000000fe004440a9000000200067
:100430000000e0000300320000002000a00188005e
:100440004440a80000000600c0b2200001002000c7
:100450001600370062004000e080480091018800eb
:100460009001ba0062004000e080480091018800dd
:100470009002ba0062004000e08048000002eb00f9
:100480006028e10005003a008301e900070033001d
:10049000038009000059eb00040037006128e100e7
:1004a000010032000082eb00050007009101880086
:1004b0001001ba000200e000e6ff3a00000005006b
:1004c000910188008002780062004000e0804800ce
:1004d0003559ba008301e900080032002559ba00f5
:1004e0008301e900050032000400e000f4ff32005f
:1004f00015d9ba008301e900f1ff3a0000000600b7
:020000040000fa
:10000800420b0000420b0000420b0000420b0000b4
:10001800420b0000420b0000420b0000420b0000a4
:10002800420b0000420b0000420b0000420b000094
:10003800420b0000420b0000420b00000c090000bc
:1000480028090000420b0000420b0000f4080000e1
:10005800e4080000420b0000420b0000420b0000c5
:10006800420b0000420b0000420b0000420b000054
:10007800420b0000420b0000420b0000420b000044
:10008800420b0000420b0000420b0000420b000034
:10009800420b0000420b0000bc080000d40800001e
:1000a800420b0000420b0000420b00004409000014
:1000b800420b0000420b0000420b0000420b000004
:1000c800420b0000420b0000420b0000420b0000f4
:1000d800420b0000420b0000420b0000420b0000e4
:1000e800420b0000420b0000420b0000420b0000d4
:1000f800420b0000420b0000420b0000420b0000c4
:10010800420b0000420b0000420b0000420b0000b3
:10011800420b0000420b0000420b0000420b0000a3
:10012800420b0000420b0000420b0000420b000093
:10013800420b0000420b0000420b0000420b000083
:10014800420b0000420b0000420b0000420b000073
:10015800420b0000420b0000420b0000420b000063
:10016800420b0000420b0000420b0000420b000053
:10017800420b0000420b0000420b0000420b000043
:10018800420b0000420b0000420b0000420b000033
:10019800420b0000420b0000420b0000420b000023
:1001a800420b0000420b0000420b0000420b000013
:1001b800420b0000420b0000420b0000420b000003
:1001c800420b0000420b0000420b0000420b0000f3
:1001d800420b0000420b0000420b0000420b0000e3
:1001e800420b0000420b0000420b0000420b0000d3
:0801f800420b0000420b000065
:020000040000fa
:10020800420b0000420b0000420b0000420b0000b2
:10021800420b0000420b0000420b0000420b0000a2
:10022800420b0000420b0000420b0000420b000092
:10023800420b0000420b0000420b00000c090000ba
:1002480028090000420b0000420b0000f4080000df
:10025800e4080000420b0000420b0000420b0000c3
:10026800420b0000420b0000420b0000420b000052
:10027800420b0000420b0000420b0000420b000042
:10028800420b0000420b0000420b0000420b000032
:10029800420b0000420b0000bc080000d40800001c
:1002a800420b0000420b0000420b00004409000012
:1002b800420b0000420b0000420b0000420b000002
:1002c800420b0000420b0000420b0000420b0000f2
:1002d800420b0000420b0000420b0000420b0000e2
:1002e800420b0000420b0000420b0000420b0000d2
:1002f800420b0000420b0000420b0000420b0000c2
:10030800420b0000420b0000420b0000420b0000b1
:10031800420b0000420b0000420b0000420b0000a1
:10032800420b0000420b0000420b0000420b000091
:10033800420b0000420b0000420b0000420b000081
:10034800420b0000420b0000420b0000420b000071
:10035800420b0000420b0000420b0000420b000061
:10036800420b0000420b0000420b0000420b000051
:10037800420b0000420b0000420b0000420b000041
:10038800420b0000420b0000420b0000420b000031
:10039800420b0000420b0000420b0000420b000021
:1003a800420b0000420b0000420b0000420b000011
:1003b800420b0000420b0000420b0000420b000001
:1003c800420b0000420b0000420b0000420b0000f1
:1003d800420b0000420b0000420b0000420b0000e1
:1003e800420b0000420b0000420b0000420b0000d1
:0803f800420b0000420b000063
:020000040000fa
:100500000e00fa00600798006000b80040079800ed
:10051000510798006000b800200798003107980044
:100520006000b800008fbe006e0090002040900078
:10053000e34f50003b003a006e0090002001900015
:10054000b001900000002000c1ff21000000610008
:10055000818061004008de00010020004007980013
:10056000510798004e009000de00900063004000ac
:10057000e080480040079800510798006e00900006
:1005800020019000b001900000fc2f0031002000fd
:1005900000006100818061004a09dd004600de0044
:1005a00000007100c608de0020079800310798009f
:1005b0006e00900020019000b0019000f003200038
:1005c0000100200000006100818061000000400007
:1005d0008180480000004000818048000000400009
:1005e00081804800000040008180480000004000f9
:1005f00081804800000040008180480000004000e9
:1006000081804800000040008180480000004000d8
:10061000818048000000400081804800008fbe00bb
:100620000d0037006e00900020019000b001900096
:10063000f07f200001002000000061008180610047
:100640000000400081804800000040008180480098
:1006500040079800510798006e00900010409000ed
:10066000e24f500032003a006e00900020409000af
:10067000e34f500005003a00002020000100200058
:100680001e1f70001e977000050037004e0090007e
:10069000de0090000010a00040079800510798006d
:1006a0006e009000304090000080fb004e019000f2
:1006b00001f827000000400000004000000040005a
:1006c0000000400001004000020878006e00900029
:1006d000304090000080fb002e01900001f82700c0
:1006e000000040000000400000004000000040000a
:1006f000010040000080e800020878006e009000d1
:10070000304090000080fb001e01780001f82700b7
:1007100000004000000040000000400000004000d9
:100720000100400064004000020878009b00370090
:100730006e009000005090000080fb00010020003f
:100740006f0060008000eb001e0f40005e974800c5
:100750006e009000304090000080fb004e01900041
:1007600001f82700000040000000400000004000a9
:100770000000400001004000020878006e00900078
:10078000304090000080fb002e01900001f827000f
:100790000000400000004000000040000000400059
:1007a000010040000080e800020878006e00900020
:1007b000304090000080fb001e01780001f8270007
:1007c0000000400000004000000040000000400029
:1007d0000100400064004000020878006e009000b4
:1007e000304090008081fb006e0090001048900027
:1007f0000080fb00000040000000400000004000be
:1008000000004000000040000000400000004000e8
:1008100000004000800078006e00900000489000ca
:100820000080fb00008040000001780001f82700f4
:100830000380410000004000000040000000400034
:100840000100400066004000020878006e00900041
:10085000304090008081fb006e0090003048900096
:100860000080fb000000400000004000000040004d
:100870000000400000004000000040000000400078
:1008800000004000800078006e009000204890003a
:100890000080fb00008040000001780001f8270084
:1008a00003804100000040000000400000004000c4
:1008b0000100400068004000020878006e009000cf
:1008c000304090008081fb006e0090005048900006
:1008d0000080fb00000040000000400000004000dd
:1008e0000000400000004000000040000000400008
:1008f00000004000800078006e00900040489000aa
:100900000080fb00008040000001780001f8270013
:100910000380410000004000000040000000400053
:10092000010040006a004000020878006e0090005c
:10093000304090008081fb006e0090007048900075
:100940000080fb000000400000004000000040006c
:100950000000400000004000000040000000400097
:1009600000004000800078006e0090006048900019
:100970000080fb00008040000001780001f82700a3
:1009800003804100000040000000400000004000e3
:10099000010040006c004000020878003064a800ac
:1009a0000080fa00000006000a00fa0040079800e4
:1009b0000000eb00300798000000eb0020079800d3
:1009c0006000b800008fbe004e00900030409000e4
:1009d0000080fb0001f827000000400000004000fc
:1009e000000040000000400060807800610060006e
:1009f000300798003e0090000000e0001f003a0021
:100a00004e009000304090000080fb0001f827006d
:100a100000004000000040000000400000004000d6
:100a2000e0807800c0ff2100008060004200de000e
:100a3000010020004e019000200198003101980033
:100a4000ce00900040c0b300a04098004e0090003f
:100a5000304090000080fb0001f8270000004000bb
:100a6000000040000000400000004000608078006e
:100a70006200600020079800600037004e00900080
:100a8000304090000080fb0001f82700000040008b
:100a9000000040000000400000004000608078003e
:100aa0006101b800c0ff210001002000001f6100ab
:100ab000019761001e00be00c000dd0000002000a4
:100ac0004e01900020019800310198004e009000e6
:100ad000304090000080fb0001f82700000040003b
:100ae0000000400000004000000040000080e800de
:100af000608078006101b800f0ff20000100200054
:100b0000001f6100019761004e00900020019000dd
:100b1000b00190001e00be0000004000818048002f
:100b200000004000818048000000400081804800b3
:100b300000004000818048000000400081804800a3
:100b4000000040008180480002004000838048008f
:100b50004e01900020019800310198004e00900055
:100b6000304090000080fb0001f8270000004000aa
:100b70000000400000004000000040006400400011
:100b8000e080780000c02f00008060004a00de0096
:100b900001002000008fbe004e009000b0009000c9
:100ba000200090003e014000ae8148000200be00df
:100bb0004e0190002001980031019800ce00900075
:100bc00030c0b300a04098004e009000304090002c
:100bd0000080fb0001f827000000400000004000fa
:100be000000040000000400064004000e080780009
:100bf0000020200000806000200798002e00900058
:100c0000e10f500004003a00ce00900020c0b30075
:100c10009040980084003700ce00900010c0b300d0
:100c2000904098004e009000304090000080fb0003
:100c300001f82700000040000000400000004000d4
:100c4000000040006600400060807800804078002e
:100c50004e009000014898004e00900030409000f7
:100c60000080fb0001f82700000040000000400069
:100c7000000040000000400066004000e080780076
:100c800000f02f00008060004800de008040780007
:100c90004e009000114898004e00900030409000a7
:100ca0000080fb0001f82700000040000000400029
:100cb00000004000000040006800400060807800b4
:100cc000804078004e009000214898004e0090002f
:100cd000304090000080fb0001f827000000400039
:100ce000000040000000400000004000680040009c
:100cf000e080780000f02f00008060004800de00f7
:100d0000804078004e009000314898004e009000de
:100d1000304090000080fb0001f8270000004000f8
:100d20000000400000004000000040006a00400059
:100d300060807800804078004e0090004148980024
:100d40004e009000304090000080fb0001f827002a
:100d50000000400000004000000040000000400093
:100d60006a004000e080780000f02f000080600002
:100d70004800de00804078004e0090005148980006
:100d80004e009000304090000080fb0001f82700ea
:100d90000000400000004000000040000000400053
:100da0006c00400060807800804078004e00900029
:100db000614898004e009000304090000080fb0099
:100dc00001f8270000004000000040000000400043
:100dd000000040006c004000e080780000f02f0030
:100de000008060004800de00804078004e009000e7
:100df000714898004e009000304090000080fb0049
:100e000001f8270000004000000040000000400002
:100e1000000040006400400060807800ef40600007
:100e20004e009000015098004e009000304090001d
:100e3000020007000080fa00000006000200fa002d
:100e4000004f780020c4bf00624060000004e00052
:100e50000500320010c0b3009e4f100002003a009f
:100e60002024a9001100370020c4bf0064406000a6
:100e70000004e0000500320020c0b3009e4f1000c7
:100e800002003a002044a9000800370020c4bf0037
:100e9000684060000004e0000400320030c0b3008d
:100ea0009e4f100001003a002064a9000080fa0063
:100eb000000006000600fa00114020009140780072
:100ec00080cfb30000c060000024a00001e4b700a0
:100ed000014020009140780000ceb30080c0600047
:100ee00000c8b30080cf5000f9ff3a000164a800a9
:100ef000014120009140780000ccb30000c06000a8
:100f000010e4b700014120009140780000ccb3000c
:100f100000c0700010e4b70021412000914078002b
:100f200080c3b30000c0700012e4b70012e4a80050
:100f3000314120009140780080cfb30000c06000b4
:100f40005040b30013e4b7002141200091407800e5
:100f500080cfb30000c060000024a00012e4b700fe
:100f600012c4a80007c4bf007f40600007e4b700b8
:100f70000004a8008141200091407800c0cfb30058
:100f800000c0600018e4b70000fe2f008021880038
:100f90000046220000228800802180000030a0004e
:100fa000802188000122800070ff2f0000806000f7
:100fb00000228800014220009140780000cfb30059
:100fc00000c060000004a00020e4b7001404a800e2
:100fd000814120009140780030cfb30000c0600014
:100fe0000024a00018e4b7000080eb00b0218800c6
:100ff00030fe2f00a0218800806725003022880065
:10100000001a290020228800a02180000030a000c2
:10101000a0218800202280000030a000202288002b
:1010200020c4bf006f40600001c2b30001407000e7
:1010300020e4b7001424a8008141200091407800ea
:10104000f0ccb30000c060000044a00018e4b7007a
:101050009067250050228800001a2900402288004d
:10106000402280000030a000402288001142200071
:101070009140780000cfb30000c060003040b30062
:1010800021e4b7001444a8000004a9001140200086
:101090009140780080cfb30000c0600001e4b70049
:1010a00000c4bf0001ceb300014060000004e000b6
:1010b000fbff3a000000eb00502188005021800027
:1010c00040218800402180001021880010218000ec
:1010d0000021880030e4a80031e4a90032e4a9002e
:1010e00033e4a90030c4bf003040b30030e4b7009f
:1010f0000000eb00002188000a24a9000080fa000b
:10110000000006000000fa000000eb00001f88004d
:1011100000022200001c880020442000401c88009f
:1011200070002000501c880060042000101c880003
:1011300000782000201c880081e3a8000000eb005c
:10114000001f880000022000c01c8800004420000e
:10115000001d880070002000101d88002002200063
:10116000d01c880000782000e01c880099e3a800cb
:081170000080fa0000000600f7
:020000040000fa
:10117800801f78000200fa00b0118000004f78004c
:101188001e00fb00a0118800c02d20001020a20026
:1011980087c0a9000080fa004f00780000400600d0
:1011a800801f78000000fa0087e0a900c02d200009
:1011b8001030a2000080fa004f00780000400600be
:1011c800801f78000000fa008580a900c02d20004b
:1011d8001000a2000080fa004f00780000400600ce
:1011e800801f78000200fa0030118000004f78005c
:1011f8001e00fb0020118800c02d20001010a20046
:101208008560a9000080fa004f00780000400600c1
:1012180000a0fe003400f800881f780008c0b30062
:10122800a80188004f0478000000fa00c02d2000b3
:101238001040a20084e0a9000080fa003400f90000
:101248000080fe000040060000a0fe003400f80008
:10125800881f780008c0b300a80188004f047800f0
:101268000000fa008500a900c02d20001050a2003f
:101278000080fa003400f9000080fe0000400600fb
:101288003600f800809fbe00829fbe00849fbe008b
:10129800869fbe000000fa000ac4bf0062406000da
:1012a8000004e0001c00320020c4bf00624060005f
:1012b8000004e0000500320050c0b30062e8b70047
:1012c80010c0b30065e8b7001100370020c4bf00a4
:1012d800644060000004e0000500320050c0b30024
:1012e80062e8b70020c0b30065e8b700080037001f
:1012f80020c4bf00684060000004e0000400320021
:1013080050c0b30062e8b70030c0b30065e8b7006a
:101318000a24a900070037000ac4bf006140600022
:101328000004e000030032000085200072fc070082
:101338000a04a9008860a9000080fa004f03be00d3
:101348004f02be004f01be004f00be003600f9003c
:10135800004006000000fa0010c0b30051e8b700d2
:1013680030c0b30052e8b7000040eb0053e8b700c4
:101378003012200001002000a0428800b1428800fd
:1013880074c8bf0058e8b70074c8bf0059e8b70070
:1013980074c8bf005ae8b70074c8bf005be8b7005c
:1013a80074c8bf005ce8b70074c8bf005de8b70048
:1013b80074c8bf005ee8b70074c8bf005fe8b70034
:1013c80080c0b30060e8b7000080fa0000000600a3
:1013d8000000fa0074000700a0002000e016880052
:1013e800dcff07000085200043fc0700c02d20001b
:1013f8001070a200d7ff070074c8bf006b40400000
:0814080074e8b700f9ff37009a
:020000040000fa
:101410000000fa0031e2a90031a2a9003182a9003e
:101420003162a9001123200091407800c0cfb300a1
:1014300000c0600031e2b70030e2a90030c2a9006c
:1014400030a2a9003082a9003062a9000123200047
:101450009140780090cfb30000c0600030e2b70048
:101460003002a900b0022000c011880033e2a900b8
:1014700033c2a90033a2a9003362a9003342a900f4
:101480003322a9003302a90032c2bf00f043b200e8
:1014900032e2b70032a2a9003282a9003262a9006a
:1014a0003242a9003222a9003202a90000402400e1
:1014b0009005880087e0a90097e0a80087c0a900f0
:1014c00097c0a80031e2a8003342a8000080fa00cb
:1014d000000006000000fa0021e2a90021a2a900f4
:1014e0002182a9002162a9001122200091407800e8
:1014f000c0cfb30000c0600021e2b70020e2a90025
:1015000020c2a90020a2a9002082a9002062a9006f
:10151000012220009140780090cfb30000c060000d
:1015200020e2b7002002a900b0022000401188008c
:1015300023e2a90023c2a90023a2a9002362a900d3
:101540002342a9002322a9002302a90022c2bf002e
:10155000f043b20022e2b70022a2a9002282a90031
:101560002262a9002242a9002222a9002202a90087
:101570008580a9009580a8008560a9009560a800d5
:1015800021e2a8002342a8000080fa000000060023
:101590000000fa0047fe0700dafe07009860a80086
:1015a0000c04a8000c24a8000080fa00000006002b
:1015b0000000fa0020002300203a8800e004200008
:1015c000303a88000000eb00403a88000000eb0051
:1015d000d01688000000eb00c01688003000200004
:1015e000e01688000000eb00800888000000eb0097
:1015f0003008880040422f00600888000002280060
:10160000800888000000eb00900888000000eb00d4
:1016100050088800400d2300700888000002280050
:10162000900888000000eb000004880000002800fb
:101630001004880084e0a90094e0a8008500a900b7
:101640009500a80072ff0700a2ff0700d0ff070067
:081650000080fa000000060012
:020000040000fa
:101658007408000002000000020000000000000002
:10166800807f0000400000000000000050080000db
:0c16780024000000000000000000000042
:020000040000fa
:041684000000fe0064
:00000001FF
